:10000000B9C00000D2C00000D0C00000CEC00000C7
:10001000CCC00000CAC00000C8C00000C6C00000BC
:10002000C4C00000C2C0000074C40000BEC0000014
:10003000BCC00000BAC00000B8C00000B6C00000DC
:10004000B4C00000B2C00000B0C00000AEC00000EC
:10005000ACC00000B9C00000A8C00000A6C00000ED
:10006000A4C00000A2C00000A0C000009EC000000C
:100070009CC000009AC0000098C0000096C000001C
:1000800094C0000092C0000090C000008EC000002C
:100090008CC000008AC0000088C0000086C000003C
:1000A00084C0000082C0000080C000001201000275
:1000B00000000008EB0347200200010200010902D2
:1000C0007000020100C032090400000001010000BC
:1000D00009240100011E0001010C2402010102009B
:1000E00001000000000924030201010001000904CD
:1000F00001000001020000090401010101020000E9
:100100000724010201010017240201010210054029
:100110001F00112B0022560044AC0080BB000905D3
:10012000810D00010100000725010100000004030A
:10013000090418034400650061006E0020004300BC
:1001400061006D00650072006100000026034C0034
:100150005500460041002000410075006400690020
:100160006F00200049006E002000440065006D0013
:100170006F00000011241FBECFEFDAE0DEBFCDBF5D
:1001800011E0A0E0B1E0EAE1F1E102C005900D92DA
:10019000A231B107D9F711E0A2E1B1E001C01D928F
:1001A000A232B107E1F770D1B6C72ACF25B1982F97
:1001B000917090952160922395B99BB18072809542
:1001C000906298239BB908951F920F920FB60F92D9
:1001D00011240F931F932F933F934F935F936F932C
:1001E0007F938F939F93AF93BF93EF93FF93009170
:1001F000E9008091EC0080911901843009F063C01E
:1002000080910C01882309F45EC0809102018F70F7
:100210008093E9008091E80080FF55C019B11095E6
:10022000117080911201181791F060910D01709179
:100230000E0180910F01909110012AE030E040E022
:1002400050E047D730931401209313010BC08091E5
:10025000130190911401009729F0019790931401D4
:100260008093130110931201112391F080911301D7
:1002700090911401892B61F480917A0080618093C0
:100280007A008091780090917900825C9E4702C04C
:1002900080E090E08093F1009093F1004091F300B2
:1002A0002091F200942F80E030E0822B932B20915C
:1002B0000301309104018217930729F48091E8002B
:1002C0008E778093E8000F700093E900FF91EF9123
:1002D000BF91AF919F918F917F916F915F914F915E
:1002E0003F912F911F910F910F900FBE0F901F9074
:1002F00018951F9380E25ADF12E010936E00209150
:100300000D0130910E0140910F015091100160E8F4
:1003100074E88EE190E0DDD6215027BD14BD15BDF7
:100320001F91089515BC81E041CFEF92FF920F938A
:100330001F93CF93DF93F801E701809102014817E3
:1003400009F052C0213009F04FC0613021F061380E
:1003500009F04AC02FC00115110509F447C02A81D0
:1003600030E040E050E0A90133272227898190E066
:10037000A0E0B0E0BA2FA92F982F8827282B392B7F
:100380004A2B5B2B888190E0A0E0B0E0282B392B32
:100390004A2B5B2B20930D0130930E0140930F01EC
:1003A0005093100160E874E88EE190E092D62150FD
:1003B00027BD1CC001151105C9F083E090E09183B1
:1003C000808320910D0130910E0140910F015091D9
:1003D0001001CA01AA27BB278A83BB27A52F942F08
:1003E000832F8983288302C080E001C081E0DF91F0
:1003F000CF911F910F91FF90EF90089580E00895A5
:1004000080E091E0E9C480E091E0D0D480FD02C0BA
:1004100081E001C080E2CACE0F931F9384B7877F2B
:1004200084BF88E10FB6F89480936000109260005A
:100430000FBE80E090E020E80FB6F89420936100B2
:10044000809361000FBE209A289A559A5D9A509821
:10045000589A0AE710E086EAF80180838498EEE76C
:10046000F0E080818061808337D284EE80937C00CD
:10047000EBE7F0E080818F7D8083F80180818064EC
:1004800080831F910F910895C7DF81E08FDE7894FC
:1004900077D4FECFDA01923049F0933061F0913099
:1004A000F9F4ECEAF0E022E130E01EC0EEEBF0E01F
:1004B00020E730E019C0813049F0813018F08230F7
:1004C00079F408C0EEE2F1E0849107C0E2E3F1E0E4
:1004D000849103C0ECE4F1E08491282F30E004C063
:1004E000E0E0F0E020E030E0ED93FC93C9010895F6
:1004F0009C0140912001509121014617570718F4A3
:10050000F90190E043C06115710511F0AB01F8CF1E
:100510008091E8008E778093E80040E050E0F0CFD3
:1005200080911901882309F447C0853009F446C039
:100530008091E80083FD44C08091E80082FD36C0D0
:100540008091E80080FF22C08091F3009091F2003A
:10055000782F60E0292F30E0262B372B07C08191C0
:100560008093F100415050402F5F3F4F411551059E
:1005700019F02830310598F390E02830310509F45E
:1005800091E08091E8008E778093E8004115510555
:1005900039F6992329F60AC080911901882361F060
:1005A000853061F08091E80083FD0AC08091E80009
:1005B00082FFF2CF80E0089582E0089583E00895FD
:1005C00081E008959C016115710529F48091E8008E
:1005D0008B778093E800F90127C080911901882367
:1005E00099F1853099F18091E80083FF02C081E0A4
:1005F00008958091E80082FFF0CF06C08091F1005D
:1006000081936150704059F02091F3008091F20085
:10061000322F20E090E0822B932B892B79F7809169
:10062000E8008B778093E80061157105B1F606C08C
:1006300080911901882341F0853041F08091E800D4
:1006400080FFF6CF80E0089582E0089583E008956A
:100650009C0140912001509121014617570718F441
:10066000F90190E044C06115710511F0AB01F8CFBC
:100670008091E8008E778093E80040E050E0F0CF72
:1006800080911901882309F448C0853009F447C0D6
:100690008091E80083FD45C08091E80082FD37C06D
:1006A0008091E80080FF23C08091F3009091F200D8
:1006B000782F60E0292F30E0262B372B08C084915B
:1006C0008093F1003196415050402F5F3F4F4115CC
:1006D000510519F02830310590F390E028303105AC
:1006E00009F491E08091E8008E778093E80041154D
:1006F000510531F6992321F60AC08091190188230A
:1007000061F0853061F08091E80083FD0AC080913E
:10071000E80082FFF2CF80E0089582E0089583E050
:10072000089581E00895382F282F2EC0822F8F70D2
:100730008093E900231721F4762F942F50E006C010
:100740007091EC009091ED005091F00091FF1BC072
:100750008091EB008E7F8093EB008091ED008D7F88
:100760008093ED008091EB0081608093EB007093AB
:10077000EC009093ED005093F0008091EE0087FD27
:1007800002C080E008952F5F273080F23F703093E1
:10079000E90081E008950F931F93CF93DF93062F15
:1007A000EC0110E02AC09881992329F16B81E9813D
:1007B000FA812C81892F8F70873018F5223010F440
:1007C00052E001C056E040E028E030E003C04F5F57
:1007D000220F331F2E173F07D0F36295660F660F67
:1007E000607C991F9927991F692B4295407F452B63
:1007F0009ADF882331F01F5F25961017A0F281E061
:1008000001C080E0DF91CF911F910F9108958091F9
:100810001A0188239CF404C0809119018823B9F03F
:100820008091E80082FFF8CF8091E8008B77809379
:10083000E800089580911901882349F08091E8002B
:1008400080FFF8CF8091E8008E778093E8000895CC
:10085000EF92FF920F931F934FD056D008ED10E008
:10086000F80180818F778083808180688083808198
:100870008F7D808319BC109219011092150110927E
:1008800017011092160180EEE82EF12CF7018081FD
:100890008B7F8083F80180818160808380E060E0CD
:1008A00042E041DFE1EEF0E080818E7F8083E2EE86
:1008B000F0E0808181608083808188608083F7019F
:1008C00080818E7F8083F8018081806180831F9189
:1008D0000F91FF90EF900895E8EDF0E080818F7E1A
:1008E0008083E7EDF0E080818160808384E082BFD7
:1008F00081E080931801ACCFE8EDF0E080818E7F3D
:1009000080831092E20008951092DA001092E100C4
:1009100008951F920F920FB60F9211242F933F93B9
:100920004F935F936F937F938F939F93AF93BF93F7
:10093000EF93FF938091E10082FF0AC08091E20073
:1009400082FF06C08091E1008B7F8093E10017D287
:100950008091DA0080FF1DC08091D80080FF19C00F
:100960008091DA008E7F8093DA008091D90080FF39
:100970000CC080E189BD82E189BD09B400FEFDCFD4
:1009800081E080931901B5DC04C019BC10921901F3
:10099000C9DC8091E10080FF18C08091E20080FFF7
:1009A00014C08091E2008E7F8093E2008091E2008B
:1009B00080618093E2008091D80080628093D800AB
:1009C00019BC85E080931901DAD18091E10084FFA0
:1009D0002FC08091E20084FF2BC080E189BD82E1BD
:1009E00089BD09B400FEFDCF8091D8008F7D809332
:1009F000D8008091E1008F7E8093E1008091E20039
:100A00008F7E8093E2008091E20081608093E2001B
:100A100080911501882311F084E007C08091E300E4
:100A200087FD02C081E001C083E080931901A7D156
:100A30008091E10083FF22C08091E20083FF1EC00D
:100A40008091E100877F8093E10082E0809319012B
:100A5000109215018091E1008E7F8093E1008091DA
:100A6000E2008E7F8093E2008091E20080618093BB
:100A7000E20080E060E042E056DE81D1FF91EF913C
:100A8000BF91AF919F918F917F916F915F914F91A6
:100A90003F912F910F900FBE0F901F9018951F93AD
:100AA000DF93CF93CDB7DEB7AC970FB6F894DEBF28
:100AB0000FBECDBFEAE1F1E08091F100819321E02A
:100AC000E232F207C9F79CDC8091E80083FF3FC166
:100AD00080911A0130911B01353009F48DC03630F8
:100AE00040F43130E1F1313070F0333009F02FC192
:100AF00036C0383009F4FDC0393009F40CC1363045
:100B000009F025C19CC0803821F0823809F01FC14E
:100B100008C090911601809117018823B1F092606E
:100B200014C080911E018F70873008F010C180932F
:100B3000E9008091EB0090E025E0969587952A9555
:100B4000E1F7982F91701092E9008091E800877F7B
:100B50008093E8009093F1001092F100D5C08823B3
:100B600019F0823009F0F3C090E08F719070009717
:100B700021F0029709F0EBC00CC080911C0181307C
:100B800009F0E5C010921701333081F58093170109
:100B90002DC080911C01882349F520911E012F70E2
:100BA000822F8150863008F0D2C02093E9008091D6
:100BB000EB0080FF1BC0333021F48091EB0080629A
:100BC00013C08091EB0080618093EB0081E090E0A6
:100BD00002C0880F991F2A95E2F78093EA001092CD
:100BE000EA008091EB0088608093EB001092E900AE
:100BF0008091E800877F8BC0882309F0A8C01091FE
:100C00001C011F778091E3008078812B8093E300A3
:100C10008091E800877F8093E800F9DD8091E8000B
:100C200080FFFCCF8091E30080688093E300112374
:100C300011F482E001C083E08093190188C08058DC
:100C4000823008F084C080911C0190911D0123E046
:100C50008C3D920709F033C083E08C838AE28B835A
:100C60007FB7F894DE0115966EE040E050E011E2A7
:100C7000E62FF0E010935700849140FF03C0829567
:100C80008F706F5F8F70282F30E08A3018F0C901A5
:100C9000C79602C0C901C0968D939D934F5F5F4F69
:100CA0004431510529F77FBF8091E800877F809309
:100CB000E800CE0103966AE270E01ADC14C060918D
:100CC0001E0170911F01AE014F5F5F4FE3DBBC015E
:100CD000009709F43CC08091E800877F8093E8008A
:100CE00089819A81B5DC8091E8008B778093E80058
:100CF0002EC0803861F58091E800877F8093E800FE
:100D0000809115018093F1008091E8008E778093A7
:100D1000E8007DDD1CC08823D1F490911C01923045
:100D2000B0F48091E800877F8093E80090931501EC
:100D30006EDD80911501882331F48091E30087FDF9
:100D400002C081E001C084E0809319015CDB8091E6
:100D5000E80083FF0AC08091E800877F8093E80065
:100D60008091EB0080628093EB00AC960FB6F89414
:100D7000DEBF0FBECDBFCF91DF911F9108950895C3
:100D80001F9380911901882371F01091E9008091DF
:100D9000EC001092E9008091E80083FF01C07FDE43
:100DA0001F701093E9001F9108950895CF93DF936A
:100DB000EC011C8681E08D838A87CE01029661E07A
:100DC000EADC882331F0CE01079661E0E4DC811192
:100DD00081E0DF91CF9108952F923F924F925F92E1
:100DE0006F927F928F929F92AF92BF92CF92DF923B
:100DF000EF92FF920F931F93DF93CF9300D0CDB765
:100E0000DEB74C012DB63EB68091E80083FF47C1A6
:100E100040911A01242F30E02F71307021303105BC
:100E200041F490911E01F4018081981779F081813D
:100E30000AC02230310551F490911E01F4018281E3
:100E4000981721F08781981709F029C170901B012C
:100E5000FBE07F16A9F0F71530F0872D8150843024
:100E600008F01DC12BC061E8761608F418C174E8BB
:100E7000771508F0B1C08FEF781609F010C113C0D4
:100E8000413009F00CC18091E800877F8093E80031
:100E9000BEDC90E080911C01811191E0F401948707
:100EA000C40183DFFCC04152423008F0F8C0809199
:100EB000E800877F8093E800AADCF1C0223031058A
:100EC00009F03EC050901E0140901D01C401672DE5
:100ED000452D242D00E010E0EE24FF2426DA88239F
:100EE00009F4DDC0BDB6AEB680912001909121011C
:100EF0009A8389832DB73EB7281B390B0FB6F89418
:100F00003EBF0FBE2DBFCDB6DEB60894C11CD11CAE
:100F10008091E800877F8093E80069817A81C6012B
:100F200051DB8091E8008E778093E800C401672D43
:100F3000452D242D8E010F5F1F4F7601F6D943C03A
:100F40002130310509F0ABC060901F0140901C01B9
:100F500050901D01C401672D462D920100E010E064
:100F6000EE24FF244BDA882309F499C0BDB6AEB64F
:100F700080912001909121019A8389836DB77EB77A
:100F8000681B790B0FB6F8947EBF0FBE6DBFCDB650
:100F9000DEB60894C11CD11C8091E800877F809345
:100FA000E80069817A81C6010DDB8091E8008E77C7
:100FB0008093E800C401672D462D92018E010F5FDA
:100FC0001F4F76011BDA2B2D3A2DC9010FB6F8946D
:100FD0009EBF0FBE8DBF63C02230310511F5CDB667
:100FE0006EB640911E0120911D01809120019091CB
:100FF00021019A838983EDB7FEB7E81BF90B0FB681
:10100000F894FEBF0FBEEDBFADB6BEB60894A11CEE
:10101000B11CC401672D8E010F5F1F4F750185D96B
:1010200026C021303105D9F5CDB66EB640911F01ED
:1010300020911C0130911D0180912001909121018E
:101040009A8389836DB77EB7681B790B0FB6F894C6
:101050007EBF0FBE6DBFADB6BEB60894A11CB11C5D
:10106000C401672D8E010F5F1F4F7501C7D98823FB
:1010700071F08091E800877F8093E80069817A8130
:10108000C50136DA8091E8008B778093E8008C2DDB
:10109000962D9C010FB6F8943EBF0FBE2DBF0FB624
:1010A000F8943EBE0FBE2DBE0F900F90CF91DF91F2
:1010B0001F910F91FF90EF90DF90CF90BF90AF9076
:1010C0009F908F907F906F905F904F903F902F9068
:1010D0000895A1E21A2EAA1BBB1BFD010DC0AA1F79
:1010E000BB1FEE1FFF1FA217B307E407F50720F091
:1010F000A21BB30BE40BF50B661F771F881F991F0C
:101100001A9469F760957095809590959B01AC0154
:0A111000BD01CF010895F894FFCF50
:10111A0000018100010002000000000000112B0004
:02112A000000C3
:00000001FF
